:020000040000FA
:0600000053EF08F01200AE
:06000800E5EF01F012001B
:06002A000100D2100000ED
:08003000000F00001F0000009A
:08003800D9CFE6FFE1CFD9FFAB
:10004000020EE126DE6ADD6ADECF10F0DDCF11F0B0
:10005000FB0EDBCF12F0FC0EDBCF13F011501318A8
:10006000E8AE02D0133404D01250105C1350115873
:1000700015E2ACA2FED7FD0EDBCF10F0FE0EDBCFFB
:1000800011F0DE501024E96EDD501120EA6EEF50C1
:10009000AD6EDF2A010E01E3DB2AD6D7320EE66E03
:1000A00010EC08F0E552020EE15C02E2E16AE55272
:1000B000E16EE552E7CFD9FF1200D9CFE6FFE1CFDD
:1000C000D9FF0A0EE126FE0EDF6EDE52010EDD6E56
:1000D000020EDB6A010EF36E030EF3CFDBFF040E9C
:1000E000DB68FE0EF36E050EF3CFDBFF020EF36E40
:1000F000060EF3CFDBFF070EDB6A020EF36E080E6F
:10010000F3CFDBFF090EDB68D9CFE6FFDACFE6FFDE
:10011000FD0EDBCFE6FFFE0EDBCFE6FFBCEC07F00B
:10012000E552E552E552E55200091AE18092C80E07
:10013000E66E10EC08F0E5528082C80EE66E10EC18
:1001400008F0E5528092C80EE66E10EC08F0E55219
:10015000000EE66E0F0EE66EF6EC04F0E552E55288
:10016000D950050FE66E000EDA20E66EFD0EDBCFED
:10017000E6FFFE0EDBCFE6FFBCEC07F0E552E552F2
:10018000E552E55200091AE18596C80EE66E10ECBC
:1001900008F0E5528586C80EE66E10EC08F0E552D0
:1001A0008596C80EE66E10EC08F0E552000EE66E7D
:1001B0000F0EE66EF6EC04F0E552E552FD0EDBCFD5
:1001C000E9FFFE0EDBCFEAFFEF50FE0821E1010E52
:1001D000E76EFD0EDBCFE9FFFE0EDBCFEAFFE75057
:1001E000E926000EEA22EF50030812E1040EE76E42
:1001F000FD0EDBCFE9FFFE0EDBCFEAFFE750E9267D
:10020000000EEA22EF50FF0803E10F01030E1E6FFC
:100210000A0EE15C02E2E16AE552E16EE552E7CFE7
:10022000D9FF1200D9CFE6FFE1CFD9FF220EE12698
:10023000D950020FE96EDACFEAFF200EEE6EEE6EB5
:10024000EE6EEE6EEE6EEE6EEE6EEE6EEE6EEE6ECE
:10025000EE6EEE6EEE6EEE6EEE6EEE6ED950120F2C
:10026000E96EDACFEAFF200EEE6EEE6EEE6EEE6E07
:10027000EE6EEE6EEE6EEE6EEE6EEE6EEE6EEE6E9E
:10028000EE6EEE6EEE6EEE6E09CFDFFF030E0F0127
:100290001E5D01E07BD0010EDB6ADBCF10F0DF04D6
:1002A000E76E1018E8AE02D0E73402D0E750105CD9
:1002B00024E2010EDB50030FE96EEA6AE9BEEA6848
:1002C000080EE9260F0EEA22EF50E66ED950020F13
:1002D000106EDACF11F0010EDBCF12F0136A12BEEE
:1002E000136810501224E96E11501320EA6EE55283
:1002F000E750EF6E010EDB2AD0D7010EE66EE66AFC
:10030000E66EE66AEAEC05F0E552E552E552E552A2
:10031000D950120FE66E000EDA20E66E7BEC05F087
:10032000E552E552020EE66EE66A010EE66EE66AF8
:10033000EAEC05F0E552E552E552E552D950120FCC
:10034000E66E000EDA20E66E7BEC05F0E552E55233
:10035000300E0F010A5D106E116A10BE116810C0D8
:10036000E6FF11C0E6FF010EE66EE66AEAEC05F074
:10037000E552E552E552E552D950020FE66E000E05
:10038000DA20E66E7BEC05F0E552E552220EE15CE8
:1003900002E2E16AE552E16EE552E7CFD9FF1200D1
:1003A000FD0E926E800E946EF50E976E9668859691
:1003B0008092D08EF28EF28C9D8A9F8A900EAB6EC8
:1003C000AC0EAC6E7B0EAF6E1200DACFE4FFE2CF64
:1003D000DAFFE9CFE4FFEACFE4FFF6CFE4FFF7CF9F
:1003E000E4FFF5CFE4FFF3CFE4FFF4CFE4FFFACF6F
:1003F000E4FF00EE00F0100EE80403E3EECFE4FFAC
:10040000FBD700EE10F0040EE80403E3EECFE4FFA8
:10041000FBD7E6529EAA98D0AECF29FFFE0E0F0161
:10042000295D11E10F01010E1C6F1D6B000EE66EC0
:100430000F0EE66EDBDAE552E55229CF00FF0F0121
:10044000010E2A6F81D0FD0E295D18E10F011C6B92
:10045000010E1D6F000EE66E0F0EE66EC7DAE55256
:10046000E552080EE66E0F0EE66EC0DAE552E55272
:1004700029CF08FF0F01010E2A6F66D00F011C055E
:1004800030E11D512EE1FE0E005D2BE12ACFE9FF88
:10049000EA6AE9BEEA68000EE9260F0EEA2229CFD1
:1004A000EFFF0F012A2B050E2A5D1BE1000EE66E01
:1004B0000F0EE66E6DD8E552E552000908E0000E19
:1004C000E66E0F0EE66EF9DDE552E5520AD0000E3B
:1004D000E66E0F0EE66E8ADAE552E5520F01010E66
:1004E0002A6F0F011D0530E11C512EE1FD0E085D44
:1004F0002BE12ACFE9FFEA6AE9BEEA68080EE9269D
:100500000F0EEA2229CFEFFF0F012A2BFF0E295DE4
:100510001BE1080EE66E0F0EE66EC0D8E552E552FE
:10052000010808E1000EE66E0F0EE66E7BDEE55276
:10053000E5520AD0080EE66E0F0EE66E57DAE55267
:10054000E5520F01010E2A6FE55200EE13F0040E82
:10055000E80403E3E5CFEDFFFBD700EE0FF0100E4C
:10056000E80403E3E5CFEDFFFBD7E5CFFAFFE5CFE6
:10057000F4FFE5CFF3FFE5CFF5FFE5CFF7FFE5CFDC
:10058000F6FFE5CFEAFFE5CFE9FFE5CFDAFF11009F
:10059000D9CFE6FFE1CFD9FF110EE126D9CFE9FF90
:1005A000DACFEAFF4F0EEE6E4B0EEE6E430EEE6E9E
:1005B0004F0EEE6E4D0EEE6EEE6E410EEE6E4E0E68
:1005C000EE6E440EEE6E450EEE6ED9500A0FE96ED9
:1005D000DACFEAFF450EEE6E520EEE6EEE6E430E71
:1005E000EE6E480EEE6E450EEE6E430EEE6E020E91
:1005F000E76EFD0EDBCFE9FFFE0EDBCFEAFFE75033
:10060000E926000EEA22EFCF11F0010EE76EFD0E93
:10061000DBCFE9FFFE0EDBCFEAFFE750E926000E55
:10062000EA22EF501124106E030EE76EFD0EDBCFB1
:10063000E9FFFE0EDBCFEAFFE750E926000EEA22D3
:10064000EF50105C0FE10A0EE66EE66AD9CFE6FFC6
:10065000DACFE6FFF1DCE552E552E552E552010E54
:1006600011D010D0070EE66EE66AD9500A0FE66E7A
:10067000000EDA20E66EE0DCE552E552E552E55286
:10068000000E00D0106E110EE15C02E2E16AE5524C
:10069000E16E1050E552E7CFD9FF1200D9CFE6FF47
:1006A000E1CFD9FF360EE126D9CFE9FFDACFEAFF55
:1006B000650EEE6E720EEE6EEE6E740EEE6E610EE6
:1006C000EE6E690EEE6E6C0EEE6EEE6E650EEE6EFA
:1006D000D950090FE96EDACFEAFF650EEE6E720EA1
:1006E000EE6EEE6E630EEE6E680EEE6E650EEE6EE4
:1006F000630EEE6E6B0EEE6E310EEE6ED950120F73
:10070000E96EDACFEAFF650EEE6E720EEE6EEE6EF9
:10071000630EEE6E680EEE6E650EEE6E630EEE6E9E
:100720006B0EEE6E320EEE6ED9501B0FE96EDACF05
:10073000EAFF650EEE6E720EEE6EEE6E630EEE6EFC
:10074000680EEE6E650EEE6E630EEE6E6B0EEE6E66
:10075000330EEE6ED950240FE96EDACFEAFF6F0E3A
:10076000EE6E6B0EEE6E700EEE6E610EEE6E720E33
:10077000EE6E610EEE6E6D0EEE6E650EEE6E740E2A
:10078000EE6E720EEE6E650EEE6E2F0EDB6A310EA1
:10079000DB6A320EDB6A330EDB6A340EDB6A350E3F
:1007A000DB6A300EDB6ADBCF10F0640EE76E1018E8
:1007B000E8AE02D0E73402D0E750105C13E22F0E0F
:1007C000DB2A300EDBCFE9FFEA6AE9BEEA68080EF1
:1007D000E9260F0EEA22EF50FF0801E103D0300EA8
:1007E000DB2AE1D72F0EDB50FA0F0F01095D0EE077
:1007F000090EE66EE66AD9CFE6FFDACFE6FF1CDC2B
:10080000E552E552E552E552000EE4D0020EF36ED9
:10081000300EF3CFDBFFDBCF10F02F0EDB50FC0FE1
:10082000E76E1018E8AE02D0E73402D0E750105C53
:1008300020E2300EDBCFE9FFEA6AE9BEEA68080E83
:10084000E9260F0EEA22EFCF12F0136A12BE1368E8
:10085000340EDB501224106E350EDB501320116E57
:10086000340E10C0DBFF350E11C0DBFF300EDB2A6B
:10087000D2D71068116A340EDBCF08F0350EDBCF0B
:1008800009F010C00DF011C00EF0EAEC07F0310EC7
:1008900008C0DBFFDB50FD0807E1010EF36E330EED
:1008A000F3CFDBFF310EDB06340EDBCF10F0350E5D
:1008B000DBCF11F00D680E6A10C008F011C009F00E
:1008C000EAEC07F004C010F005C011F0320E10C0C1
:1008D000DBFFDB50FD0807E1020EF36E330EF3CFB2
:1008E000DBFF320EDB062F0EDB50FC0FE96EEA6AEF
:1008F000E9BEEA68080EE9260F0EEA22EF50F36E11
:10090000310EDB50F35C11E0090EE66EE66AD95059
:10091000090FE66E000EDA20E66E1CEC00F0E552E0
:10092000E552E552E552000E55D02F0EDB50FD0F7B
:10093000E96EEA6AE9BEEA68080EE9260F0EEA22C5
:10094000EF50F36E320EDB50F35C11E0090EE66EF1
:10095000E66AD950120FE66E000EDA20E66E1CEC45
:1009600000F0E552E552E552E552000E33D02F0E6D
:10097000DB50FE0FE96EEA6AE9BEEA68080EE92676
:100980000F0EEA22EF50F36E330EDB50F35C11E0F2
:10099000090EE66EE66AD9501B0FE66E000EDA20ED
:1009A000E66E1CEC00F0E552E552E552E552000E11
:1009B00011D00B0EE66EE66AD950240FE66E000EDB
:1009C000DA20E66E1CEC00F0E552E552E552E55205
:1009D000010E00D0106E360EE15C02E2E16AE552D3
:1009E000E16E1050E552E7CFD9FF1200D9CFE6FFF4
:1009F000E1CFD9FF0F012A6B2ACF10F0116A10BE88
:100A0000116810C0E6FF11C0E6FFFD0EDBCFE6FF68
:100A1000FE0EDBCFE6FFDCEC07F0E552E552E552D7
:100A2000E7CF11F0E552E7CF10F0F3CF12F0F4CF9B
:100A300013F01250105C1350115811E22ACF10F02D
:100A4000116A10BE1168FD0EDB501024E96EFE0E17
:100A5000DB501120EA6EEF6A0F012A2BCDD7E55249
:060A6000E7CFD9FF1200F0
:0A0A6600956A839C839A030EE66EE6
:100A700027D9E552030EE66E23D9E552030EE66E42
:100A80001FD9E552020EE66E1BD9E552280EE66E1E
:100A900034D9E552100EE66E30D9E552010EE66EFD
:100AA0002CD9E552060EE66E28D9E5520F0EE66EF9
:100AB00024D9E5521200D9CFE6FFE1CFD9FF838CCC
:100AC00031D98388F00E8314836EFE0EDB380F0B52
:100AD0000F0B8310836E839825D98388F00E8314BF
:100AE000836EFE0EDB500F0B8310836E8398E552EE
:100AF000E7CFD9FF1200D9CFE6FFE1CFD9FF020E31
:100B0000E126DE6ADD6ADECF10F0DDCF11F010C025
:100B1000E6FF11C0E6FFFD0EDBCFE6FFFE0EDBCFEA
:100B2000E6FFDCEC07F0E552E552E552E7CF11F0C5
:100B3000E552E7CF10F0F3CF12F0F4CF13F01250DC
:100B4000105C1350115815E2FD0EDBCF10F0FE0EB5
:100B5000DBCF11F0DE501024E96EDD501120EA6E7B
:100B6000EF50E66EA8DFE552DF2A010E01E3DB2A33
:100B7000CAD7020EE15C02E2E16AE552E16EE5529B
:100B8000E7CFD9FF1200D9CFE6FFE1CFD9FF100E92
:100B9000E126D9CFE6FFDACFE6FFFD0EDBCFE6FF99
:100BA000FE0EDBCFE6FFD3EC06F0E552E552E55250
:100BB000E552D9CFE6FFDACFE6FF9DDFE552E552F9
:100BC000100EE15C02E2E16AE552E16EE552E7CF28
:100BD000D9FF1200D9CFE6FFE1CFD9FF020EE126FF
:100BE000DE6ADD6A839C839AD950FB0FE96EFF0EA3
:100BF000DA20EA6E020EEE1801E1ED500CE1DECFD4
:100C000010F0DDCF11F0400E1026000E112210C0A2
:100C1000DEFF11C0DDFFFD0EDBCF12F0FE0EDBCFDD
:100C200013F0DE501224106EDD501320116E1006EA
:100C3000000E115A10C0DEFF11C0DDFF73D883888B
:100C4000F00E8314836E800EE76E000EDFCF12F07D
:100C5000010EDBCF13F0E7501212040ED8901332BE
:100C60001232E804FBE10F0E1216000E1316835029
:100C700000011210106E13C011F01050836E839893
:100C800051D88388F00E8314836EDECF12F0DDCF4F
:100C900013F00F0E1216000E1316835000011210DF
:100CA000106E13C011F01050836E8398020EE15C39
:100CB00002E2E16AE552E16EE552E7CFD9FF1200A8
:100CC000D9CFE6FFE1CFD9FF320EE66E10EC08F087
:100CD000E552FE0EDB500F0BE76EFE0EE7CFDBFF9B
:100CE0008388F00E8314836EFE0EDB508310836EB8
:100CF0008398E552E7CFD9FF1200D9CFE6FFE1CFC5
:100D0000D9FFFE0EDB380F0B0F0BE66ED9DFE55275
:100D1000FE0EDB500F0BE66ED3DFE552E552E7CF58
:100D2000D9FF1200D9CFE6FFE1CFD9FF040EE126AB
:100D30008350400B01E0010EDE6EDD6A8350200B14
:100D400001E0010EE66ED950020FE96EDACFEAFF3C
:100D5000E552E750EE6EED6A838A839C080E95108B
:100D6000956E838A839C835002E0000E01D0010EB1
:100D7000080B01E0F8D7F70E9514956EDF50E8B038
:100D8000838CE8A0839C020EDB50E8B0838AE8A045
:100D9000839A040EE15C02E2E16AE552E16EE552FB
:060DA000E7CFD9FF1200AD
:0A0DA600D9CFE6FFDACFE6FFFA0E20
:100DB000E3CFD9FFFB0EE3CFDAFFFD0EE35209E7E5
:100DC0002D0EDE6EFC0EE31EE32AFD0ED8B4E30604
:100DD000E31EE652E652E652FD0EE124E76EFF0EF8
:100DE000E220E46EE652F70EE3CFE6FFF70EE3CF24
:100DF000E6FF43EC07F0F90EE124E96EFF0EE22076
:100E0000EA6E33EC07F00AE130EC07F009E133EC6D
:100E100007F008E130EC07F007E108D03EEC07F0FE
:100E200039EC07F03EEC07F039EC07F03EEC07F048
:100E3000DE6AF90EE126FF0EE222FF0EE3CFDAFFB3
:100E4000E552FF0EE3CFD9FFE552FC0EE124E96E37
:100E5000FF0EE220EA6EEECFF3FFEFCFF4FF1200B9
:100E6000EF380F0B1200EF500F0B02E1EE52D88457
:100E70001200EF380F0B300FDE6E1200EE500F0B2A
:100E8000300FDE6E1200FC0EE3CFE9FFFD0EE3CF64
:100E9000EAFF100EE66EEE6AEE6AEF6AD890FD0E7B
:100EA000E336FE0EE336ED36ED36EF36FF0EE306A3
:100EB00009E064EC07F0EE5264EC07F0EE5264ECEB
:100EC00007F0EDD7E56E1200030EEF24E8B6EF6EE3
:0A0ED000300EEF24E8BEEF6E000CB8
:060EDA002A0EF66E000E68
:100EE000F76E000EF86E0F010900F550246F09002F
:100EF000F550256F03E1246701D03DD00900F5507E
:100F00001F6F0900F550206F0900F550216F09008F
:100F10000900F550E96E0900F550EA6E0900090074
:100F20000900F550226F0900F550236F09000900F0
:100F3000F6CF26FFF7CF27FFF8CF28FF1FCFF6FF0A
:100F400020CFF7FF21CFF8FF0F01225302E12353F7
:100F500007E00900F550EE6E2207F8E22307F9D703
:100F600026CFF6FF27CFF7FF28CFF8FF0F01240782
:080F7000000E255BBFD7120043
:080F7800D9CFE6FFDACFE6FF56
:100F8000FA0EE3CFD9FFFB0EE3CFDAFFFC0EE3CF7F
:100F9000E9FFFD0EE3CFEAFFDE50EF5C02E1EE6613
:100FA000FBD7F36EFF0EE3CFDAFFE552FF0EE3CF80
:100FB000D9FFE552F3501200FE0EE3CFE9FFFF0E1A
:100FC000E3CFEAFFF36AF46AEE5203E0F34AF42A4D
:040FD000FBD7120039
:0C0FD400006A0EAEF3EF07F00D6C0E1E6D
:100FE000E86A0E22001E09AEFBEF07F0086C091E2E
:100FF000E86A0922001E3DEC08F009BE0BEF08F07C
:1010000000AE000C086C091EE86A0922046C051E7B
:10101000E86A0522000C00BE02EF08F00188FF0C10
:10102000FF0EE350156EEF0E01D0F30EE76EE72EC4
:1010300017EF08F00C0E146EE76AE72E1DEF08F0AC
:0E104000142E1CEF08F0152E15EF08F012000C
:02104E0033EC81
:1010500005F0D0EC01F0C80EE66E10EC08F0E55299
:10106000010EE66EE66AE66EE66AEAEC05F0E55227
:0A107000E552E552E552EFD71200F9
:06107A00056A046A100E75
:10108000E76ED89008360936043605360D50045CF4
:101090000E50055805E30D50045E0E50055A082AFF
:0610A000E72EF0D712005C
:0A10A6001DEE00F02DEE00F0F86AD8
:1010B000019C6DEC07F068EC08F027EC08F0FBD71A
:0210C00012001C
:0E10C20000EE00F00F0EEE6AEA62FDD712009B
:0210D00012000C
:0E10D200202020202020202020202020202050
:1010E00020200000000000000000000000000000C0
:0110F00000FF
:00000001FF
